{
  "_format": "hh-sol-artifact-1",
  "contractName": "MemeToken",
  "sourceName": "contracts/ERC20/MemeToken.sol",
  "abi": [
    {
      "inputs": [
        {
          "internalType": "string",
          "name": "name_",
          "type": "string"
        },
        {
          "internalType": "string",
          "name": "symbol_",
          "type": "string"
        },
        {
          "internalType": "uint256",
          "name": "totalSupply_",
          "type": "uint256"
        },
        {
          "internalType": "uint256",
          "name": "buyTax_",
          "type": "uint256"
        },
        {
          "internalType": "uint256",
          "name": "sellTax_",
          "type": "uint256"
        },
        {
          "internalType": "uint256",
          "name": "maxHoldingLimit_",
          "type": "uint256"
        },
        {
          "internalType": "uint256",
          "name": "maxBuyLimit_",
          "type": "uint256"
        },
        {
          "internalType": "uint256",
          "name": "maxSellLimit_",
          "type": "uint256"
        },
        {
          "internalType": "address",
          "name": "marketingWallet_",
          "type": "address"
        }
      ],
      "stateMutability": "nonpayable",
      "type": "constructor"
    },
    {
      "anonymous": false,
      "inputs": [
        {
          "indexed": true,
          "internalType": "address",
          "name": "owner",
          "type": "address"
        },
        {
          "indexed": true,
          "internalType": "address",
          "name": "spender",
          "type": "address"
        },
        {
          "indexed": false,
          "internalType": "uint256",
          "name": "value",
          "type": "uint256"
        }
      ],
      "name": "Approval",
      "type": "event"
    },
    {
      "anonymous": false,
      "inputs": [
        {
          "indexed": true,
          "internalType": "address",
          "name": "previousOwner",
          "type": "address"
        },
        {
          "indexed": true,
          "internalType": "address",
          "name": "newOwner",
          "type": "address"
        }
      ],
      "name": "OwnershipTransferred",
      "type": "event"
    },
    {
      "anonymous": false,
      "inputs": [
        {
          "indexed": true,
          "internalType": "address",
          "name": "from",
          "type": "address"
        },
        {
          "indexed": true,
          "internalType": "address",
          "name": "to",
          "type": "address"
        },
        {
          "indexed": false,
          "internalType": "uint256",
          "name": "value",
          "type": "uint256"
        }
      ],
      "name": "Transfer",
      "type": "event"
    },
    {
      "inputs": [
        {
          "internalType": "address",
          "name": "owner",
          "type": "address"
        },
        {
          "internalType": "address",
          "name": "spender",
          "type": "address"
        }
      ],
      "name": "allowance",
      "outputs": [
        {
          "internalType": "uint256",
          "name": "",
          "type": "uint256"
        }
      ],
      "stateMutability": "view",
      "type": "function"
    },
    {
      "inputs": [
        {
          "internalType": "address",
          "name": "spender",
          "type": "address"
        },
        {
          "internalType": "uint256",
          "name": "amount",
          "type": "uint256"
        }
      ],
      "name": "approve",
      "outputs": [
        {
          "internalType": "bool",
          "name": "",
          "type": "bool"
        }
      ],
      "stateMutability": "nonpayable",
      "type": "function"
    },
    {
      "inputs": [
        {
          "internalType": "address",
          "name": "account",
          "type": "address"
        }
      ],
      "name": "balanceOf",
      "outputs": [
        {
          "internalType": "uint256",
          "name": "",
          "type": "uint256"
        }
      ],
      "stateMutability": "view",
      "type": "function"
    },
    {
      "inputs": [],
      "name": "buyMarketFee",
      "outputs": [
        {
          "internalType": "uint256",
          "name": "",
          "type": "uint256"
        }
      ],
      "stateMutability": "view",
      "type": "function"
    },
    {
      "inputs": [],
      "name": "decimals",
      "outputs": [
        {
          "internalType": "uint8",
          "name": "",
          "type": "uint8"
        }
      ],
      "stateMutability": "view",
      "type": "function"
    },
    {
      "inputs": [
        {
          "internalType": "address",
          "name": "spender",
          "type": "address"
        },
        {
          "internalType": "uint256",
          "name": "subtractedValue",
          "type": "uint256"
        }
      ],
      "name": "decreaseAllowance",
      "outputs": [
        {
          "internalType": "bool",
          "name": "",
          "type": "bool"
        }
      ],
      "stateMutability": "nonpayable",
      "type": "function"
    },
    {
      "inputs": [
        {
          "internalType": "uint8",
          "name": "v",
          "type": "uint8"
        },
        {
          "internalType": "bytes32",
          "name": "r",
          "type": "bytes32"
        },
        {
          "internalType": "bytes32",
          "name": "s",
          "type": "bytes32"
        }
      ],
      "name": "allowTradingWithPermit",
      "outputs": [],
      "stateMutability": "nonpayable",
      "type": "function"
    },
    {
      "inputs": [
        {
          "internalType": "address",
          "name": "spender",
          "type": "address"
        },
        {
          "internalType": "uint256",
          "name": "addedValue",
          "type": "uint256"
        }
      ],
      "name": "increaseAllowance",
      "outputs": [
        {
          "internalType": "bool",
          "name": "",
          "type": "bool"
        }
      ],
      "stateMutability": "nonpayable",
      "type": "function"
    },
    {
      "inputs": [],
      "name": "limitsInEffect",
      "outputs": [
        {
          "internalType": "bool",
          "name": "",
          "type": "bool"
        }
      ],
      "stateMutability": "view",
      "type": "function"
    },
    {
      "inputs": [],
      "name": "maxTxnSize",
      "outputs": [
        {
          "internalType": "uint256",
          "name": "",
          "type": "uint256"
        }
      ],
      "stateMutability": "view",
      "type": "function"
    },
    {
      "inputs": [],
      "name": "maxWalletSize",
      "outputs": [
        {
          "internalType": "uint256",
          "name": "",
          "type": "uint256"
        }
      ],
      "stateMutability": "view",
      "type": "function"
    },
    {
      "inputs": [],
      "name": "mkWallet",
      "outputs": [
        {
          "internalType": "address",
          "name": "",
          "type": "address"
        }
      ],
      "stateMutability": "view",
      "type": "function"
    },
    {
      "inputs": [],
      "name": "name",
      "outputs": [
        {
          "internalType": "string",
          "name": "",
          "type": "string"
        }
      ],
      "stateMutability": "view",
      "type": "function"
    },
    {
      "inputs": [],
      "name": "openTrading",
      "outputs": [],
      "stateMutability": "nonpayable",
      "type": "function"
    },
    {
      "inputs": [],
      "name": "owner",
      "outputs": [
        {
          "internalType": "address",
          "name": "",
          "type": "address"
        }
      ],
      "stateMutability": "view",
      "type": "function"
    },
    {
      "inputs": [],
      "name": "removeLimits",
      "outputs": [
        {
          "internalType": "bool",
          "name": "",
          "type": "bool"
        }
      ],
      "stateMutability": "nonpayable",
      "type": "function"
    },
    {
      "inputs": [],
      "name": "renounceOwnership",
      "outputs": [],
      "stateMutability": "nonpayable",
      "type": "function"
    },
    {
      "inputs": [],
      "name": "sellMarketFee",
      "outputs": [
        {
          "internalType": "uint256",
          "name": "",
          "type": "uint256"
        }
      ],
      "stateMutability": "view",
      "type": "function"
    },
    {
      "inputs": [],
      "name": "swapEnabled",
      "outputs": [
        {
          "internalType": "bool",
          "name": "",
          "type": "bool"
        }
      ],
      "stateMutability": "view",
      "type": "function"
    },
    {
      "inputs": [],
      "name": "swapTokensAtAmount",
      "outputs": [
        {
          "internalType": "uint256",
          "name": "",
          "type": "uint256"
        }
      ],
      "stateMutability": "view",
      "type": "function"
    },
    {
      "inputs": [],
      "name": "symbol",
      "outputs": [
        {
          "internalType": "string",
          "name": "",
          "type": "string"
        }
      ],
      "stateMutability": "view",
      "type": "function"
    },
    {
      "inputs": [],
      "name": "tokensForMarket",
      "outputs": [
        {
          "internalType": "uint256",
          "name": "",
          "type": "uint256"
        }
      ],
      "stateMutability": "view",
      "type": "function"
    },
    {
      "inputs": [],
      "name": "totalSupply",
      "outputs": [
        {
          "internalType": "uint256",
          "name": "",
          "type": "uint256"
        }
      ],
      "stateMutability": "view",
      "type": "function"
    },
    {
      "inputs": [],
      "name": "tradingActive",
      "outputs": [
        {
          "internalType": "bool",
          "name": "",
          "type": "bool"
        }
      ],
      "stateMutability": "view",
      "type": "function"
    },
    {
      "inputs": [
        {
          "internalType": "address",
          "name": "recipient",
          "type": "address"
        },
        {
          "internalType": "uint256",
          "name": "amount",
          "type": "uint256"
        }
      ],
      "name": "transfer",
      "outputs": [
        {
          "internalType": "bool",
          "name": "",
          "type": "bool"
        }
      ],
      "stateMutability": "nonpayable",
      "type": "function"
    },
    {
      "inputs": [
        {
          "internalType": "address",
          "name": "sender",
          "type": "address"
        },
        {
          "internalType": "address",
          "name": "recipient",
          "type": "address"
        },
        {
          "internalType": "uint256",
          "name": "amount",
          "type": "uint256"
        }
      ],
      "name": "transferFrom",
      "outputs": [
        {
          "internalType": "bool",
          "name": "",
          "type": "bool"
        }
      ],
      "stateMutability": "nonpayable",
      "type": "function"
    },
    {
      "inputs": [
        {
          "internalType": "address",
          "name": "newOwner",
          "type": "address"
        }
      ],
      "name": "transferOwnership",
      "outputs": [],
      "stateMutability": "nonpayable",
      "type": "function"
    },
    {
      "inputs": [],
      "name": "uniswapPair",
      "outputs": [
        {
          "internalType": "address",
          "name": "",
          "type": "address"
        }
      ],
      "stateMutability": "view",
      "type": "function"
    },
    {
      "inputs": [],
      "name": "uniswapRouter",
      "outputs": [
        {
          "internalType": "contract IUniswapV2Router02",
          "name": "",
          "type": "address"
        }
      ],
      "stateMutability": "view",
      "type": "function"
    },
    {
      "inputs": [
        {
          "internalType": "uint256",
          "name": "newMarketFee",
          "type": "uint256"
        }
      ],
      "name": "updateBuyFees",
      "outputs": [],
      "stateMutability": "nonpayable",
      "type": "function"
    },
    {
      "inputs": [
        {
          "internalType": "uint256",
          "name": "newNum",
          "type": "uint256"
        }
      ],
      "name": "updateMaxWalletSize",
      "outputs": [],
      "stateMutability": "nonpayable",
      "type": "function"
    },
    {
      "inputs": [
        {
          "internalType": "uint256",
          "name": "newMarketFee",
          "type": "uint256"
        }
      ],
      "name": "updateSellFees",
      "outputs": [],
      "stateMutability": "nonpayable",
      "type": "function"
    },
    {
      "inputs": [
        {
          "internalType": "uint256",
          "name": "newAmount",
          "type": "uint256"
        }
      ],
      "name": "updateSwapTokensAtAmount",
      "outputs": [
        {
          "internalType": "bool",
          "name": "",
          "type": "bool"
        }
      ],
      "stateMutability": "nonpayable",
      "type": "function"
    },
    {
      "inputs": [
        {
          "internalType": "uint256",
          "name": "newNum",
          "type": "uint256"
        }
      ],
      "name": "updatemaxTxnSize",
      "outputs": [],
      "stateMutability": "nonpayable",
      "type": "function"
    },
    {
      "stateMutability": "payable",
      "type": "receive"
    }
  ],
  "bytecode": "0x60806040526000600860146101000a81548160ff0219169083151502179055506000600860156101000a81548160ff0219169083151502179055506001600860166101000a81548160ff0219169083151502179055506012600860176101000a81548160ff021916908360ff1602179055503480156200007e57600080fd5b5060405162005d7438038062005d748339818101604052810190620000a4919062000c3f565b88888160009081620000b7919062000f9d565b508060019081620000c9919062000f9d565b505050620000ec620000e0620007bb60201b60201c565b620007c360201b60201c565b601986111562000133576040517f08c379a00000000000000000000000000000000000000000000000000000000081526004016200012a90620010e5565b60405180910390fd5b60198511156200017a576040517f08c379a0000000000000000000000000000000000000000000000000000000008152600401620001719062001157565b60405180910390fd5b60008411620001c0576040517f08c379a0000000000000000000000000000000000000000000000000000000008152600401620001b790620011ef565b60405180910390fd5b6000831162000206576040517f08c379a0000000000000000000000000000000000000000000000000000000008152600401620001fd9062001287565b60405180910390fd5b600082116200024c576040517f08c379a000000000000000000000000000000000000000000000000000000000815260040162000243906200131f565b60405180910390fd5b600073ffffffffffffffffffffffffffffffffffffffff168173ffffffffffffffffffffffffffffffffffffffff1603620002be576040517f08c379a0000000000000000000000000000000000000000000000000000000008152600401620002b590620013b7565b60405180910390fd5b6012600860176101000a81548160ff021916908360ff16021790555080600860006101000a81548173ffffffffffffffffffffffffffffffffffffffff021916908373ffffffffffffffffffffffffffffffffffffffff16021790555085600c8190555084600d81905550603846036200038d577310ed43c718714eb63d5aa57b78b54704e256024e600660006101000a81548173ffffffffffffffffffffffffffffffffffffffff021916908373ffffffffffffffffffffffffffffffffffffffff160217905550620004fb565b60614603620003f157739ac64cc6e4415144c455bd8e4837fea55603e5c3600660006101000a81548173ffffffffffffffffffffffffffffffffffffffff021916908373ffffffffffffffffffffffffffffffffffffffff160217905550620004fa565b600146036200045557737a250d5630b4cf539739df2c5dacb4c659f2488d600660006101000a81548173ffffffffffffffffffffffffffffffffffffffff021916908373ffffffffffffffffffffffffffffffffffffffff160217905550620004f9565b62aa36a74603620004bb5773c532a74256d3db42d0bf7a0400fefdbad7694008600660006101000a81548173ffffffffffffffffffffffffffffffffffffffff021916908373ffffffffffffffffffffffffffffffffffffffff160217905550620004f8565b6040517f08c379a0000000000000000000000000000000000000000000000000000000008152600401620004ef9062001429565b60405180910390fd5b5b5b5b600660009054906101000a900473ffffffffffffffffffffffffffffffffffffffff1673ffffffffffffffffffffffffffffffffffffffff1663c45a01556040518163ffffffff1660e01b8152600401602060405180830381865afa15801562000569573d6000803e3d6000fd5b505050506040513d601f19601f820116820180604052508101906200058f91906200144b565b73ffffffffffffffffffffffffffffffffffffffff1663c9c6539630600660009054906101000a900473ffffffffffffffffffffffffffffffffffffffff1673ffffffffffffffffffffffffffffffffffffffff1663ad5c46486040518163ffffffff1660e01b8152600401602060405180830381865afa15801562000619573d6000803e3d6000fd5b505050506040513d601f19601f820116820180604052508101906200063f91906200144b565b6040518363ffffffff1660e01b81526004016200065e9291906200148e565b6020604051808303816000875af11580156200067e573d6000803e3d6000fd5b505050506040513d601f19601f82011682018060405250810190620006a491906200144b565b600760006101000a81548173ffffffffffffffffffffffffffffffffffffffff021916908373ffffffffffffffffffffffffffffffffffffffff1602179055506000600860179054906101000a900460ff16600a6200070491906200164b565b886200071191906200169c565b9050600860179054906101000a900460ff16600a6200073191906200164b565b846200073e91906200169c565b600981905550600860179054906101000a900460ff16600a6200076291906200164b565b856200076f91906200169c565b600b819055506103e86005826200078791906200169c565b62000793919062001716565b600a81905550620007ab33826200088960201b60201c565b5050505050505050505062001829565b600033905090565b6000600560009054906101000a900473ffffffffffffffffffffffffffffffffffffffff16905081600560006101000a81548173ffffffffffffffffffffffffffffffffffffffff021916908373ffffffffffffffffffffffffffffffffffffffff1602179055508173ffffffffffffffffffffffffffffffffffffffff168173ffffffffffffffffffffffffffffffffffffffff167f8be0079c531659141344cd1fd0a4f28419497f9722a3daafe3b4186f6b6457e060405160405180910390a35050565b600073ffffffffffffffffffffffffffffffffffffffff168273ffffffffffffffffffffffffffffffffffffffff1603620008fb576040517f08c379a0000000000000000000000000000000000000000000000000000000008152600401620008f2906200179e565b60405180910390fd5b6200090f6000838362000a0260201b60201c565b8060026000828254620009239190620017c0565b9250508190555080600360008473ffffffffffffffffffffffffffffffffffffffff1673ffffffffffffffffffffffffffffffffffffffff16815260200190815260200160002060008282546200097b9190620017c0565b925050819055508173ffffffffffffffffffffffffffffffffffffffff16600073ffffffffffffffffffffffffffffffffffffffff167fddf252ad1be2c89b69c2b068fc378daa952ba7f163c4a11628f55a4df523b3ef83604051620009e291906200180c565b60405180910390a3620009fe6000838362000a0760201b60201c565b5050565b505050565b505050565b6000604051905090565b600080fd5b600080fd5b600080fd5b600080fd5b6000601f19601f8301169050919050565b7f4e487b7100000000000000000000000000000000000000000000000000000000600052604160045260246000fd5b62000a758262000a2a565b810181811067ffffffffffffffff8211171562000a975762000a9662000a3b565b5b80604052505050565b600062000aac62000a0c565b905062000aba828262000a6a565b919050565b600067ffffffffffffffff82111562000add5762000adc62000a3b565b5b62000ae88262000a2a565b9050602081019050919050565b60005b8381101562000b1557808201518184015260208101905062000af8565b60008484015250505050565b600062000b3862000b328462000abf565b62000aa0565b90508281526020810184848401111562000b575762000b5662000a25565b5b62000b6484828562000af5565b509392505050565b600082601f83011262000b845762000b8362000a20565b5b815162000b9684826020860162000b21565b91505092915050565b6000819050919050565b62000bb48162000b9f565b811462000bc057600080fd5b50565b60008151905062000bd48162000ba9565b92915050565b600073ffffffffffffffffffffffffffffffffffffffff82169050919050565b600062000c078262000bda565b9050919050565b62000c198162000bfa565b811462000c2557600080fd5b50565b60008151905062000c398162000c0e565b92915050565b60008060008060008060008060006101208a8c03121562000c655762000c6462000a16565b5b60008a015167ffffffffffffffff81111562000c865762000c8562000a1b565b5b62000c948c828d0162000b6c565b99505060208a015167ffffffffffffffff81111562000cb85762000cb762000a1b565b5b62000cc68c828d0162000b6c565b985050604062000cd98c828d0162000bc3565b975050606062000cec8c828d0162000bc3565b965050608062000cff8c828d0162000bc3565b95505060a062000d128c828d0162000bc3565b94505060c062000d258c828d0162000bc3565b93505060e062000d388c828d0162000bc3565b92505061010062000d4c8c828d0162000c28565b9150509295985092959850929598565b600081519050919050565b7f4e487b7100000000000000000000000000000000000000000000000000000000600052602260045260246000fd5b6000600282049050600182168062000daf57607f821691505b60208210810362000dc55762000dc462000d67565b5b50919050565b60008190508160005260206000209050919050565b60006020601f8301049050919050565b600082821b905092915050565b60006008830262000e2f7fffffffffffffffffffffffffffffffffffffffffffffffffffffffffffffffff8262000df0565b62000e3b868362000df0565b95508019841693508086168417925050509392505050565b6000819050919050565b600062000e7e62000e7862000e728462000b9f565b62000e53565b62000b9f565b9050919050565b6000819050919050565b62000e9a8362000e5d565b62000eb262000ea98262000e85565b84845462000dfd565b825550505050565b600090565b62000ec962000eba565b62000ed681848462000e8f565b505050565b5b8181101562000efe5762000ef260008262000ebf565b60018101905062000edc565b5050565b601f82111562000f4d5762000f178162000dcb565b62000f228462000de0565b8101602085101562000f32578190505b62000f4a62000f418562000de0565b83018262000edb565b50505b505050565b600082821c905092915050565b600062000f726000198460080262000f52565b1980831691505092915050565b600062000f8d838362000f5f565b9150826002028217905092915050565b62000fa88262000d5c565b67ffffffffffffffff81111562000fc45762000fc362000a3b565b5b62000fd0825462000d96565b62000fdd82828562000f02565b600060209050601f83116001811462001015576000841562001000578287015190505b6200100c858262000f7f565b8655506200107c565b601f198416620010258662000dcb565b60005b828110156200104f5784890151825560018201915060208501945060208101905062001028565b868310156200106f57848901516200106b601f89168262000f5f565b8355505b6001600288020188555050505b505050505050565b600082825260208201905092915050565b7f427579207461782063616e6e6f74206578636565642032352500000000000000600082015250565b6000620010cd60198362001084565b9150620010da8262001095565b602082019050919050565b600060208201905081810360008301526200110081620010be565b9050919050565b7f53656c6c207461782063616e6e6f742065786365656420323525000000000000600082015250565b60006200113f601a8362001084565b91506200114c8262001107565b602082019050919050565b60006020820190508181036000830152620011728162001130565b9050919050565b7f4d617820686f6c64696e67206c696d6974206d7573742062652067726561746560008201527f72207468616e2030000000000000000000000000000000000000000000000000602082015250565b6000620011d760288362001084565b9150620011e48262001179565b604082019050919050565b600060208201905081810360008301526200120a81620011c8565b9050919050565b7f4d617820627579206c696d6974206d757374206265206772656174657220746860008201527f616e203000000000000000000000000000000000000000000000000000000000602082015250565b60006200126f60248362001084565b91506200127c8262001211565b604082019050919050565b60006020820190508181036000830152620012a28162001260565b9050919050565b7f4d61782073656c6c206c696d6974206d7573742062652067726561746572207460008201527f68616e2030000000000000000000000000000000000000000000000000000000602082015250565b60006200130760258362001084565b91506200131482620012a9565b604082019050919050565b600060208201905081810360008301526200133a81620012f8565b9050919050565b7f4d61726b6574696e672077616c6c65742063616e6e6f74206265207a65726f2060008201527f6164647265737300000000000000000000000000000000000000000000000000602082015250565b60006200139f60278362001084565b9150620013ac8262001341565b604082019050919050565b60006020820190508181036000830152620013d28162001390565b9050919050565b7f556e737570706f72746564206e6574776f726b00000000000000000000000000600082015250565b60006200141160138362001084565b91506200141e82620013d9565b602082019050919050565b60006020820190508181036000830152620014448162001402565b9050919050565b60006020828403121562001464576200146362000a16565b5b6000620014748482850162000c28565b91505092915050565b620014888162000bfa565b82525050565b6000604082019050620014a560008301856200147d565b620014b460208301846200147d565b9392505050565b7f4e487b7100000000000000000000000000000000000000000000000000000000600052601160045260246000fd5b60008160011c9050919050565b6000808291508390505b60018511156200154957808604811115620015215762001520620014bb565b5b6001851615620015315780820291505b80810290506200154185620014ea565b945062001501565b94509492505050565b60008262001564576001905062001637565b8162001574576000905062001637565b81600181146200158d57600281146200159857620015ce565b600191505062001637565b60ff841115620015ad57620015ac620014bb565b5b8360020a915084821115620015c757620015c6620014bb565b5b5062001637565b5060208310610133831016604e8410600b8410161715620016085782820a905083811115620016025762001601620014bb565b5b62001637565b620016178484846001620014f7565b92509050818404811115620016315762001630620014bb565b5b81810290505b9392505050565b600060ff82169050919050565b6000620016588262000b9f565b915062001665836200163e565b9250620016947fffffffffffffffffffffffffffffffffffffffffffffffffffffffffffffffff848462001552565b905092915050565b6000620016a98262000b9f565b9150620016b68362000b9f565b9250828202620016c68162000b9f565b91508282048414831517620016e057620016df620014bb565b5b5092915050565b7f4e487b7100000000000000000000000000000000000000000000000000000000600052601260045260246000fd5b6000620017238262000b9f565b9150620017308362000b9f565b925082620017435762001742620016e7565b5b828204905092915050565b7f45524332303a206d696e7420746f20746865207a65726f206164647265737300600082015250565b600062001786601f8362001084565b915062001793826200174e565b602082019050919050565b60006020820190508181036000830152620017b98162001777565b9050919050565b6000620017cd8262000b9f565b9150620017da8362000b9f565b9250828201905080821115620017f557620017f4620014bb565b5b92915050565b620018068162000b9f565b82525050565b6000602082019050620018236000830184620017fb565b92915050565b61453b80620018396000396000f3fe6080604052600436106101fd5760003560e01c80638da5cb5b1161010d578063c02174ca116100a0578063dd62ed3e1161006f578063dd62ed3e14610736578063e2f4560514610773578063e4a1b95f1461079e578063eba4c333146107c9578063f2fde38b146107f257610204565b8063c02174ca1461068c578063c816841b146106b7578063c9567bf9146106e2578063d257b34f146106f957610204565b8063a457c2d7116100dc578063a457c2d7146105be578063a9059cbb146105fb578063a90eab8c14610638578063bbc0c7421461066157610204565b80638da5cb5b146105145780638f3fa8601461053f57806395d89b411461056a578063979919aa1461059557610204565b806335b5fb631161019057806370a082311161015f57806370a0823114610441578063715018a61461047e57806371fc468814610495578063735de9f7146104be578063751039fc146104e957610204565b806335b5fb631461038357806339509351146103ae5780634a62bb65146103eb5780636ddd17131461041657610204565b806323b872dd116101cc57806323b872dd146102c757806324887e80146103045780632b5f295a1461032d578063313ce5671461035857610204565b806306fdde0314610209578063095ea7b31461023457806318160ddd146102715780631f7ea8da1461029c57610204565b3661020457005b600080fd5b34801561021557600080fd5b5061021e61081b565b60405161022b9190613026565b60405180910390f35b34801561024057600080fd5b5061025b600480360381019061025691906130e1565b6108ad565b604051610268919061313c565b60405180910390f35b34801561027d57600080fd5b506102866108cb565b6040516102939190613166565b60405180910390f35b3480156102a857600080fd5b506102b16108d5565b6040516102be9190613166565b60405180910390f35b3480156102d357600080fd5b506102ee60048036038101906102e99190613181565b6108db565b6040516102fb919061313c565b60405180910390f35b34801561031057600080fd5b5061032b600480360381019061032691906131d4565b6109d3565b005b34801561033957600080fd5b50610342610ae2565b60405161034f9190613166565b60405180910390f35b34801561036457600080fd5b5061036d610ae8565b60405161037a919061321d565b60405180910390f35b34801561038f57600080fd5b50610398610aff565b6040516103a59190613166565b60405180910390f35b3480156103ba57600080fd5b506103d560048036038101906103d091906130e1565b610b05565b6040516103e2919061313c565b60405180910390f35b3480156103f757600080fd5b50610400610bb1565b60405161040d919061313c565b60405180910390f35b34801561042257600080fd5b5061042b610bc4565b604051610438919061313c565b60405180910390f35b34801561044d57600080fd5b5061046860048036038101906104639190613238565b610bd7565b6040516104759190613166565b60405180910390f35b34801561048a57600080fd5b50610493610c20565b005b3480156104a157600080fd5b506104bc60048036038101906104b791906131d4565b610ca8565b005b3480156104ca57600080fd5b506104d3610d74565b6040516104e091906132c4565b60405180910390f35b3480156104f557600080fd5b506104fe610d9a565b60405161050b919061313c565b60405180910390f35b34801561052057600080fd5b50610529610e3a565b60405161053691906132ee565b60405180910390f35b34801561054b57600080fd5b50610554610e64565b6040516105619190613166565b60405180910390f35b34801561057657600080fd5b5061057f610e6a565b60405161058c9190613026565b60405180910390f35b3480156105a157600080fd5b506105bc60048036038101906105b791906131d4565b610efc565b005b3480156105ca57600080fd5b506105e560048036038101906105e091906130e1565b61100b565b6040516105f2919061313c565b60405180910390f35b34801561060757600080fd5b50610622600480360381019061061d91906130e1565b6110f6565b60405161062f919061313c565b60405180910390f35b34801561064457600080fd5b5061065f600480360381019061065a919061336b565b611114565b005b34801561066d57600080fd5b5061067661139f565b604051610683919061313c565b60405180910390f35b34801561069857600080fd5b506106a16113b2565b6040516106ae91906132ee565b60405180910390f35b3480156106c357600080fd5b506106cc6113d8565b6040516106d991906132ee565b60405180910390f35b3480156106ee57600080fd5b506106f76113fe565b005b34801561070557600080fd5b50610720600480360381019061071b91906131d4565b6114b2565b60405161072d919061313c565b60405180910390f35b34801561074257600080fd5b5061075d600480360381019061075891906133be565b611607565b60405161076a9190613166565b60405180910390f35b34801561077f57600080fd5b5061078861168e565b6040516107959190613166565b60405180910390f35b3480156107aa57600080fd5b506107b3611694565b6040516107c09190613166565b60405180910390f35b3480156107d557600080fd5b506107f060048036038101906107eb91906131d4565b61169a565b005b3480156107fe57600080fd5b5061081960048036038101906108149190613238565b611766565b005b60606000805461082a9061342d565b80601f01602080910402602001604051908101604052809291908181526020018280546108569061342d565b80156108a35780601f10610878576101008083540402835291602001916108a3565b820191906000526020600020905b81548152906001019060200180831161088657829003601f168201915b5050505050905090565b60006108c16108ba61185d565b8484611865565b6001905092915050565b6000600254905090565b600e5481565b60006108e8848484611a2e565b6000600460008673ffffffffffffffffffffffffffffffffffffffff1673ffffffffffffffffffffffffffffffffffffffff168152602001908152602001600020600061093361185d565b73ffffffffffffffffffffffffffffffffffffffff1673ffffffffffffffffffffffffffffffffffffffff168152602001908152602001600020549050828110156109b3576040517f08c379a00000000000000000000000000000000000000000000000000000000081526004016109aa906134d0565b60405180910390fd5b6109c7856109bf61185d565b858403611865565b60019150509392505050565b6109db61185d565b73ffffffffffffffffffffffffffffffffffffffff166109f9610e3a565b73ffffffffffffffffffffffffffffffffffffffff1614610a4f576040517f08c379a0000000000000000000000000000000000000000000000000000000008152600401610a469061353c565b60405180910390fd5b670de0b6b3a76400006103e86005610a656108cb565b610a6f919061358b565b610a7991906135fc565b610a8391906135fc565b811015610ac5576040517f08c379a0000000000000000000000000000000000000000000000000000000008152600401610abc9061369f565b60405180910390fd5b670de0b6b3a764000081610ad9919061358b565b600b8190555050565b60095481565b6000600860179054906101000a900460ff16905090565b600d5481565b6000610ba7610b1261185d565b848460046000610b2061185d565b73ffffffffffffffffffffffffffffffffffffffff1673ffffffffffffffffffffffffffffffffffffffff16815260200190815260200160002060008873ffffffffffffffffffffffffffffffffffffffff1673ffffffffffffffffffffffffffffffffffffffff16815260200190815260200160002054610ba291906136bf565b611865565b6001905092915050565b600860169054906101000a900460ff1681565b600860159054906101000a900460ff1681565b6000600360008373ffffffffffffffffffffffffffffffffffffffff1673ffffffffffffffffffffffffffffffffffffffff168152602001908152602001600020549050919050565b610c2861185d565b73ffffffffffffffffffffffffffffffffffffffff16610c46610e3a565b73ffffffffffffffffffffffffffffffffffffffff1614610c9c576040517f08c379a0000000000000000000000000000000000000000000000000000000008152600401610c939061353c565b60405180910390fd5b610ca6600061281b565b565b610cb061185d565b73ffffffffffffffffffffffffffffffffffffffff16610cce610e3a565b73ffffffffffffffffffffffffffffffffffffffff1614610d24576040517f08c379a0000000000000000000000000000000000000000000000000000000008152600401610d1b9061353c565b60405180910390fd5b80600c819055506019600c541115610d71576040517f08c379a0000000000000000000000000000000000000000000000000000000008152600401610d689061373f565b60405180910390fd5b50565b600660009054906101000a900473ffffffffffffffffffffffffffffffffffffffff1681565b6000610da461185d565b73ffffffffffffffffffffffffffffffffffffffff16610dc2610e3a565b73ffffffffffffffffffffffffffffffffffffffff1614610e18576040517f08c379a0000000000000000000000000000000000000000000000000000000008152600401610e0f9061353c565b60405180910390fd5b6000600860166101000a81548160ff0219169083151502179055506001905090565b6000600560009054906101000a900473ffffffffffffffffffffffffffffffffffffffff16905090565b600b5481565b606060018054610e799061342d565b80601f0160208091040260200160405190810160405280929190818152602001828054610ea59061342d565b8015610ef25780601f10610ec757610100808354040283529160200191610ef2565b820191906000526020600020905b815481529060010190602001808311610ed557829003601f168201915b5050505050905090565b610f0461185d565b73ffffffffffffffffffffffffffffffffffffffff16610f22610e3a565b73ffffffffffffffffffffffffffffffffffffffff1614610f78576040517f08c379a0000000000000000000000000000000000000000000000000000000008152600401610f6f9061353c565b60405180910390fd5b670de0b6b3a76400006103e86001610f8e6108cb565b610f98919061358b565b610fa291906135fc565b610fac91906135fc565b811015610fee576040517f08c379a0000000000000000000000000000000000000000000000000000000008152600401610fe5906137d1565b60405180910390fd5b670de0b6b3a764000081611002919061358b565b60098190555050565b6000806004600061101a61185d565b73ffffffffffffffffffffffffffffffffffffffff1673ffffffffffffffffffffffffffffffffffffffff16815260200190815260200160002060008573ffffffffffffffffffffffffffffffffffffffff1673ffffffffffffffffffffffffffffffffffffffff168152602001908152602001600020549050828110156110d7576040517f08c379a00000000000000000000000000000000000000000000000000000000081526004016110ce90613863565b60405180910390fd5b6110eb6110e261185d565b85858403611865565b600191505092915050565b600061110a61110361185d565b8484611a2e565b6001905092915050565b60007f8b73c3c69bb8fe3d512ecc4cf759cc79239f7b179b0ffacaa9a75d522b39400f6040518060400160405280600d81526020017f54726164696e6720546f6b656e00000000000000000000000000000000000000815250805190602001206040518060400160405280600181526020017f31000000000000000000000000000000000000000000000000000000000000008152508051906020012046306040516020016111c7959493929190613892565b60405160208183030381529060405280519060200120905060007f7dfdbf06c6260804b81338506aa4a709bd9f04b68ca0d2d054b8627926c90ae46040518060400160405280600e81526020017f456e61626c652054726164696e67000000000000000000000000000000000000815250805190602001206000604051602001611253939291906138e5565b60405160208183030381529060405280519060200120905060008282604051602001611280929190613994565b6040516020818303038152906040528051906020012090506000600182888888604051600081526020016040526040516112bd94939291906139cb565b6020604051602081039080840390855afa1580156112df573d6000803e3d6000fd5b5050506020604051035190506112f3610e3a565b73ffffffffffffffffffffffffffffffffffffffff168173ffffffffffffffffffffffffffffffffffffffff1614611360576040517f08c379a000000000000000000000000000000000000000000000000000000000815260040161135790613a5c565b60405180910390fd5b6001600860146101000a81548160ff0219169083151502179055506001600860156101000a81548160ff02191690831515021790555050505050505050565b600860149054906101000a900460ff1681565b600860009054906101000a900473ffffffffffffffffffffffffffffffffffffffff1681565b600760009054906101000a900473ffffffffffffffffffffffffffffffffffffffff1681565b61140661185d565b73ffffffffffffffffffffffffffffffffffffffff16611424610e3a565b73ffffffffffffffffffffffffffffffffffffffff161461147a576040517f08c379a00000000000000000000000000000000000000000000000000000000081526004016114719061353c565b60405180910390fd5b6001600860146101000a81548160ff0219169083151502179055506001600860156101000a81548160ff021916908315150217905550565b60006114bc61185d565b73ffffffffffffffffffffffffffffffffffffffff166114da610e3a565b73ffffffffffffffffffffffffffffffffffffffff1614611530576040517f08c379a00000000000000000000000000000000000000000000000000000000081526004016115279061353c565b60405180910390fd5b620186a0600161153e6108cb565b611548919061358b565b61155291906135fc565b821015611594576040517f08c379a000000000000000000000000000000000000000000000000000000000815260040161158b90613aee565b60405180910390fd5b6103e860056115a16108cb565b6115ab919061358b565b6115b591906135fc565b8211156115f7576040517f08c379a00000000000000000000000000000000000000000000000000000000081526004016115ee90613b80565b60405180910390fd5b81600a8190555060019050919050565b6000600460008473ffffffffffffffffffffffffffffffffffffffff1673ffffffffffffffffffffffffffffffffffffffff16815260200190815260200160002060008373ffffffffffffffffffffffffffffffffffffffff1673ffffffffffffffffffffffffffffffffffffffff16815260200190815260200160002054905092915050565b600a5481565b600c5481565b6116a261185d565b73ffffffffffffffffffffffffffffffffffffffff166116c0610e3a565b73ffffffffffffffffffffffffffffffffffffffff1614611716576040517f08c379a000000000000000000000000000000000000000000000000000000000815260040161170d9061353c565b60405180910390fd5b80600d819055506019600d541115611763576040517f08c379a000000000000000000000000000000000000000000000000000000000815260040161175a9061373f565b60405180910390fd5b50565b61176e61185d565b73ffffffffffffffffffffffffffffffffffffffff1661178c610e3a565b73ffffffffffffffffffffffffffffffffffffffff16146117e2576040517f08c379a00000000000000000000000000000000000000000000000000000000081526004016117d99061353c565b60405180910390fd5b600073ffffffffffffffffffffffffffffffffffffffff168173ffffffffffffffffffffffffffffffffffffffff1603611851576040517f08c379a000000000000000000000000000000000000000000000000000000000815260040161184890613c12565b60405180910390fd5b61185a8161281b565b50565b600033905090565b600073ffffffffffffffffffffffffffffffffffffffff168373ffffffffffffffffffffffffffffffffffffffff16036118d4576040517f08c379a00000000000000000000000000000000000000000000000000000000081526004016118cb90613ca4565b60405180910390fd5b600073ffffffffffffffffffffffffffffffffffffffff168273ffffffffffffffffffffffffffffffffffffffff1603611943576040517f08c379a000000000000000000000000000000000000000000000000000000000815260040161193a90613d36565b60405180910390fd5b80600460008573ffffffffffffffffffffffffffffffffffffffff1673ffffffffffffffffffffffffffffffffffffffff16815260200190815260200160002060008473ffffffffffffffffffffffffffffffffffffffff1673ffffffffffffffffffffffffffffffffffffffff168152602001908152602001600020819055508173ffffffffffffffffffffffffffffffffffffffff168373ffffffffffffffffffffffffffffffffffffffff167f8c5be1e5ebec7d5bd14f71427d1e84f3dd0314c0f7b2291e5b200ac8c7c3b92583604051611a219190613166565b60405180910390a3505050565b600073ffffffffffffffffffffffffffffffffffffffff168373ffffffffffffffffffffffffffffffffffffffff1603611a9d576040517f08c379a0000000000000000000000000000000000000000000000000000000008152600401611a9490613dc8565b60405180910390fd5b600073ffffffffffffffffffffffffffffffffffffffff168273ffffffffffffffffffffffffffffffffffffffff1603611b0c576040517f08c379a0000000000000000000000000000000000000000000000000000000008152600401611b0390613e5a565b60405180910390fd5b60008111611b4f576040517f08c379a0000000000000000000000000000000000000000000000000000000008152600401611b4690613eec565b60405180910390fd5b60008103611b6857611b63838360006128e1565b612816565b600860169054906101000a900460ff161561236457611b85610e3a565b73ffffffffffffffffffffffffffffffffffffffff168373ffffffffffffffffffffffffffffffffffffffff1614158015611bec57503073ffffffffffffffffffffffffffffffffffffffff168373ffffffffffffffffffffffffffffffffffffffff1614155b8015611c2b5750611bfb610e3a565b73ffffffffffffffffffffffffffffffffffffffff168273ffffffffffffffffffffffffffffffffffffffff1614155b8015611c6357503073ffffffffffffffffffffffffffffffffffffffff168273ffffffffffffffffffffffffffffffffffffffff1614155b8015611c9c5750600073ffffffffffffffffffffffffffffffffffffffff168273ffffffffffffffffffffffffffffffffffffffff1614155b8015611cd6575061dead73ffffffffffffffffffffffffffffffffffffffff168273ffffffffffffffffffffffffffffffffffffffff1614155b8015611cef5750600f60009054906101000a900460ff16155b1561236357600860149054906101000a900460ff16611d43576040517f08c379a0000000000000000000000000000000000000000000000000000000008152600401611d3a90613f58565b60405180910390fd5b600760009054906101000a900473ffffffffffffffffffffffffffffffffffffffff1673ffffffffffffffffffffffffffffffffffffffff168373ffffffffffffffffffffffffffffffffffffffff16148015611dd35750611da3610e3a565b73ffffffffffffffffffffffffffffffffffffffff168273ffffffffffffffffffffffffffffffffffffffff1614155b8015611e0b57503073ffffffffffffffffffffffffffffffffffffffff168273ffffffffffffffffffffffffffffffffffffffff1614155b8015611e45575061dead73ffffffffffffffffffffffffffffffffffffffff168273ffffffffffffffffffffffffffffffffffffffff1614155b8015611e9f5750600660009054906101000a900473ffffffffffffffffffffffffffffffffffffffff1673ffffffffffffffffffffffffffffffffffffffff168273ffffffffffffffffffffffffffffffffffffffff1614155b8015611ef95750600760009054906101000a900473ffffffffffffffffffffffffffffffffffffffff1673ffffffffffffffffffffffffffffffffffffffff168273ffffffffffffffffffffffffffffffffffffffff1614155b15611fa057600954811115611f43576040517f08c379a0000000000000000000000000000000000000000000000000000000008152600401611f3a90613fea565b60405180910390fd5b600b54611f4f83610bd7565b82611f5a91906136bf565b1115611f9b576040517f08c379a0000000000000000000000000000000000000000000000000000000008152600401611f9290614056565b60405180910390fd5b612362565b600760009054906101000a900473ffffffffffffffffffffffffffffffffffffffff1673ffffffffffffffffffffffffffffffffffffffff168273ffffffffffffffffffffffffffffffffffffffff161480156120305750612000610e3a565b73ffffffffffffffffffffffffffffffffffffffff168373ffffffffffffffffffffffffffffffffffffffff1614155b801561206857503073ffffffffffffffffffffffffffffffffffffffff168373ffffffffffffffffffffffffffffffffffffffff1614155b80156120a2575061dead73ffffffffffffffffffffffffffffffffffffffff168373ffffffffffffffffffffffffffffffffffffffff1614155b80156120fc5750600660009054906101000a900473ffffffffffffffffffffffffffffffffffffffff1673ffffffffffffffffffffffffffffffffffffffff168373ffffffffffffffffffffffffffffffffffffffff1614155b80156121565750600760009054906101000a900473ffffffffffffffffffffffffffffffffffffffff1673ffffffffffffffffffffffffffffffffffffffff168373ffffffffffffffffffffffffffffffffffffffff1614155b156121a5576009548111156121a0576040517f08c379a0000000000000000000000000000000000000000000000000000000008152600401612197906140e8565b60405180910390fd5b612361565b6121ad610e3a565b73ffffffffffffffffffffffffffffffffffffffff168273ffffffffffffffffffffffffffffffffffffffff161415801561221457503073ffffffffffffffffffffffffffffffffffffffff168273ffffffffffffffffffffffffffffffffffffffff1614155b801561224e575061dead73ffffffffffffffffffffffffffffffffffffffff168273ffffffffffffffffffffffffffffffffffffffff1614155b80156122a85750600660009054906101000a900473ffffffffffffffffffffffffffffffffffffffff1673ffffffffffffffffffffffffffffffffffffffff168273ffffffffffffffffffffffffffffffffffffffff1614155b80156123025750600760009054906101000a900473ffffffffffffffffffffffffffffffffffffffff1673ffffffffffffffffffffffffffffffffffffffff168273ffffffffffffffffffffffffffffffffffffffff1614155b1561236057600b5461231383610bd7565b8261231e91906136bf565b111561235f576040517f08c379a000000000000000000000000000000000000000000000000000000000815260040161235690614056565b60405180910390fd5b5b5b5b5b5b600061236f30610bd7565b90506000600a5482101590508080156123945750600860159054906101000a900460ff165b80156123ad5750600f60009054906101000a900460ff16155b80156124075750600760009054906101000a900473ffffffffffffffffffffffffffffffffffffffff1673ffffffffffffffffffffffffffffffffffffffff168573ffffffffffffffffffffffffffffffffffffffff1614155b80156124465750612416610e3a565b73ffffffffffffffffffffffffffffffffffffffff168573ffffffffffffffffffffffffffffffffffffffff1614155b801561247e57503073ffffffffffffffffffffffffffffffffffffffff168573ffffffffffffffffffffffffffffffffffffffff1614155b80156124b8575061dead73ffffffffffffffffffffffffffffffffffffffff168573ffffffffffffffffffffffffffffffffffffffff1614155b80156124f757506124c7610e3a565b73ffffffffffffffffffffffffffffffffffffffff168473ffffffffffffffffffffffffffffffffffffffff1614155b801561252f57503073ffffffffffffffffffffffffffffffffffffffff168473ffffffffffffffffffffffffffffffffffffffff1614155b8015612569575061dead73ffffffffffffffffffffffffffffffffffffffff168473ffffffffffffffffffffffffffffffffffffffff1614155b156125ad576001600f60006101000a81548160ff021916908315150217905550612591612b63565b6000600f60006101000a81548160ff0219169083151502179055505b6000600f60009054906101000a900460ff161590508080156126745750600760009054906101000a900473ffffffffffffffffffffffffffffffffffffffff1673ffffffffffffffffffffffffffffffffffffffff168673ffffffffffffffffffffffffffffffffffffffff1614806126735750600760009054906101000a900473ffffffffffffffffffffffffffffffffffffffff1673ffffffffffffffffffffffffffffffffffffffff168573ffffffffffffffffffffffffffffffffffffffff16145b5b15612807576000600760009054906101000a900473ffffffffffffffffffffffffffffffffffffffff1673ffffffffffffffffffffffffffffffffffffffff168773ffffffffffffffffffffffffffffffffffffffff161480156126da57506000600c54115b1561273c5761270760646126f9600c5488612ca190919063ffffffff16565b612cb790919063ffffffff16565b905080600e600082825461271b91906136bf565b925050819055506127358186612ccd90919063ffffffff16565b94506127fa565b600760009054906101000a900473ffffffffffffffffffffffffffffffffffffffff1673ffffffffffffffffffffffffffffffffffffffff168673ffffffffffffffffffffffffffffffffffffffff1614801561279b57506000600d54115b156127f9576127c860646127ba600d5488612ca190919063ffffffff16565b612cb790919063ffffffff16565b905080600e60008282546127dc91906136bf565b925050819055506127f68186612ccd90919063ffffffff16565b94505b5b6128058730836128e1565b505b6128128686866128e1565b5050505b505050565b6000600560009054906101000a900473ffffffffffffffffffffffffffffffffffffffff16905081600560006101000a81548173ffffffffffffffffffffffffffffffffffffffff021916908373ffffffffffffffffffffffffffffffffffffffff1602179055508173ffffffffffffffffffffffffffffffffffffffff168173ffffffffffffffffffffffffffffffffffffffff167f8be0079c531659141344cd1fd0a4f28419497f9722a3daafe3b4186f6b6457e060405160405180910390a35050565b600073ffffffffffffffffffffffffffffffffffffffff168373ffffffffffffffffffffffffffffffffffffffff1603612950576040517f08c379a000000000000000000000000000000000000000000000000000000000815260040161294790613dc8565b60405180910390fd5b600073ffffffffffffffffffffffffffffffffffffffff168273ffffffffffffffffffffffffffffffffffffffff16036129bf576040517f08c379a00000000000000000000000000000000000000000000000000000000081526004016129b690613e5a565b60405180910390fd5b6129ca838383612ce3565b6000600360008573ffffffffffffffffffffffffffffffffffffffff1673ffffffffffffffffffffffffffffffffffffffff16815260200190815260200160002054905081811015612a51576040517f08c379a0000000000000000000000000000000000000000000000000000000008152600401612a489061417a565b60405180910390fd5b818103600360008673ffffffffffffffffffffffffffffffffffffffff1673ffffffffffffffffffffffffffffffffffffffff1681526020019081526020016000208190555081600360008573ffffffffffffffffffffffffffffffffffffffff1673ffffffffffffffffffffffffffffffffffffffff1681526020019081526020016000206000828254612ae691906136bf565b925050819055508273ffffffffffffffffffffffffffffffffffffffff168473ffffffffffffffffffffffffffffffffffffffff167fddf252ad1be2c89b69c2b068fc378daa952ba7f163c4a11628f55a4df523b3ef84604051612b4a9190613166565b60405180910390a3612b5d848484612ce8565b50505050565b6000612b6e30610bd7565b90506000600e549050600080831480612b875750600082145b15612b9457505050612c9f565b6014600a54612ba3919061358b565b831115612bbc576014600a54612bb9919061358b565b92505b612bc583612ced565b6000600e81905550600860009054906101000a900473ffffffffffffffffffffffffffffffffffffffff1673ffffffffffffffffffffffffffffffffffffffff1647604051612c13906141cb565b60006040518083038185875af1925050503d8060008114612c50576040519150601f19603f3d011682016040523d82523d6000602084013e612c55565b606091505b50508091505080612c9b576040517f08c379a0000000000000000000000000000000000000000000000000000000008152600401612c9290614252565b60405180910390fd5b5050505b565b60008183612caf919061358b565b905092915050565b60008183612cc591906135fc565b905092915050565b60008183612cdb9190614272565b905092915050565b505050565b505050565b6000600267ffffffffffffffff811115612d0a57612d096142a6565b5b604051908082528060200260200182016040528015612d385781602001602082028036833780820191505090505b5090503081600081518110612d5057612d4f6142d5565b5b602002602001019073ffffffffffffffffffffffffffffffffffffffff16908173ffffffffffffffffffffffffffffffffffffffff1681525050600660009054906101000a900473ffffffffffffffffffffffffffffffffffffffff1673ffffffffffffffffffffffffffffffffffffffff1663ad5c46486040518163ffffffff1660e01b8152600401602060405180830381865afa158015612df7573d6000803e3d6000fd5b505050506040513d601f19601f82011682018060405250810190612e1b9190614319565b81600181518110612e2f57612e2e6142d5565b5b602002602001019073ffffffffffffffffffffffffffffffffffffffff16908173ffffffffffffffffffffffffffffffffffffffff1681525050612e9630600660009054906101000a900473ffffffffffffffffffffffffffffffffffffffff1684611865565b600660009054906101000a900473ffffffffffffffffffffffffffffffffffffffff1673ffffffffffffffffffffffffffffffffffffffff1663791ac9478360008430426040518663ffffffff1660e01b8152600401612efa95949392919061443f565b600060405180830381600087803b158015612f1457600080fd5b505af1925050508015612f25575060015b612f9257612f5730600660009054906101000a900473ffffffffffffffffffffffffffffffffffffffff166000611865565b6040517f08c379a0000000000000000000000000000000000000000000000000000000008152600401612f89906144e5565b60405180910390fd5b5050565b600081519050919050565b600082825260208201905092915050565b60005b83811015612fd0578082015181840152602081019050612fb5565b60008484015250505050565b6000601f19601f8301169050919050565b6000612ff882612f96565b6130028185612fa1565b9350613012818560208601612fb2565b61301b81612fdc565b840191505092915050565b600060208201905081810360008301526130408184612fed565b905092915050565b600080fd5b600073ffffffffffffffffffffffffffffffffffffffff82169050919050565b60006130788261304d565b9050919050565b6130888161306d565b811461309357600080fd5b50565b6000813590506130a58161307f565b92915050565b6000819050919050565b6130be816130ab565b81146130c957600080fd5b50565b6000813590506130db816130b5565b92915050565b600080604083850312156130f8576130f7613048565b5b600061310685828601613096565b9250506020613117858286016130cc565b9150509250929050565b60008115159050919050565b61313681613121565b82525050565b6000602082019050613151600083018461312d565b92915050565b613160816130ab565b82525050565b600060208201905061317b6000830184613157565b92915050565b60008060006060848603121561319a57613199613048565b5b60006131a886828701613096565b93505060206131b986828701613096565b92505060406131ca868287016130cc565b9150509250925092565b6000602082840312156131ea576131e9613048565b5b60006131f8848285016130cc565b91505092915050565b600060ff82169050919050565b61321781613201565b82525050565b6000602082019050613232600083018461320e565b92915050565b60006020828403121561324e5761324d613048565b5b600061325c84828501613096565b91505092915050565b6000819050919050565b600061328a6132856132808461304d565b613265565b61304d565b9050919050565b600061329c8261326f565b9050919050565b60006132ae82613291565b9050919050565b6132be816132a3565b82525050565b60006020820190506132d960008301846132b5565b92915050565b6132e88161306d565b82525050565b600060208201905061330360008301846132df565b92915050565b61331281613201565b811461331d57600080fd5b50565b60008135905061332f81613309565b92915050565b6000819050919050565b61334881613335565b811461335357600080fd5b50565b6000813590506133658161333f565b92915050565b60008060006060848603121561338457613383613048565b5b600061339286828701613320565b93505060206133a386828701613356565b92505060406133b486828701613356565b9150509250925092565b600080604083850312156133d5576133d4613048565b5b60006133e385828601613096565b92505060206133f485828601613096565b9150509250929050565b7f4e487b7100000000000000000000000000000000000000000000000000000000600052602260045260246000fd5b6000600282049050600182168061344557607f821691505b602082108103613458576134576133fe565b5b50919050565b7f45524332303a207472616e7366657220616d6f756e742065786365656473206160008201527f6c6c6f77616e6365000000000000000000000000000000000000000000000000602082015250565b60006134ba602883612fa1565b91506134c58261345e565b604082019050919050565b600060208201905081810360008301526134e9816134ad565b9050919050565b7f4f776e61626c653a2063616c6c6572206973206e6f7420746865206f776e6572600082015250565b6000613526602083612fa1565b9150613531826134f0565b602082019050919050565b6000602082019050818103600083015261355581613519565b9050919050565b7f4e487b7100000000000000000000000000000000000000000000000000000000600052601160045260246000fd5b6000613596826130ab565b91506135a1836130ab565b92508282026135af816130ab565b915082820484148315176135c6576135c561355c565b5b5092915050565b7f4e487b7100000000000000000000000000000000000000000000000000000000600052601260045260246000fd5b6000613607826130ab565b9150613612836130ab565b925082613622576136216135cd565b5b828204905092915050565b7f43616e6e6f7420736574206d617857616c6c657453697a65206c6f776572207460008201527f68616e20302e3525000000000000000000000000000000000000000000000000602082015250565b6000613689602883612fa1565b91506136948261362d565b604082019050919050565b600060208201905081810360008301526136b88161367c565b9050919050565b60006136ca826130ab565b91506136d5836130ab565b92508282019050808211156136ed576136ec61355c565b5b92915050565b7f4d757374206b656570206665657320617420323525206f72206c657373000000600082015250565b6000613729601d83612fa1565b9150613734826136f3565b602082019050919050565b600060208201905081810360008301526137588161371c565b9050919050565b7f43616e6e6f7420736574206d617854786e53697a65206c6f776572207468616e60008201527f20302e3125000000000000000000000000000000000000000000000000000000602082015250565b60006137bb602583612fa1565b91506137c68261375f565b604082019050919050565b600060208201905081810360008301526137ea816137ae565b9050919050565b7f45524332303a2064656372656173656420616c6c6f77616e63652062656c6f7760008201527f207a65726f000000000000000000000000000000000000000000000000000000602082015250565b600061384d602583612fa1565b9150613858826137f1565b604082019050919050565b6000602082019050818103600083015261387c81613840565b9050919050565b61388c81613335565b82525050565b600060a0820190506138a76000830188613883565b6138b46020830187613883565b6138c16040830186613883565b6138ce6060830185613157565b6138db60808301846132df565b9695505050505050565b60006060820190506138fa6000830186613883565b6139076020830185613883565b6139146040830184613157565b949350505050565b600081905092915050565b7f1901000000000000000000000000000000000000000000000000000000000000600082015250565b600061395d60028361391c565b915061396882613927565b600282019050919050565b6000819050919050565b61398e61398982613335565b613973565b82525050565b600061399f82613950565b91506139ab828561397d565b6020820191506139bb828461397d565b6020820191508190509392505050565b60006080820190506139e06000830187613883565b6139ed602083018661320e565b6139fa6040830185613883565b613a076060830184613883565b95945050505050565b7f496e76616c6964207369676e6174757265000000000000000000000000000000600082015250565b6000613a46601183612fa1565b9150613a5182613a10565b602082019050919050565b60006020820190508181036000830152613a7581613a39565b9050919050565b7f5377617020616d6f756e742063616e6e6f74206265206c6f776572207468616e60008201527f20302e3030312520746f74616c20737570706c792e0000000000000000000000602082015250565b6000613ad8603583612fa1565b9150613ae382613a7c565b604082019050919050565b60006020820190508181036000830152613b0781613acb565b9050919050565b7f5377617020616d6f756e742063616e6e6f74206265206869676865722074686160008201527f6e20302e352520746f74616c20737570706c792e000000000000000000000000602082015250565b6000613b6a603483612fa1565b9150613b7582613b0e565b604082019050919050565b60006020820190508181036000830152613b9981613b5d565b9050919050565b7f4f776e61626c653a206e6577206f776e657220697320746865207a65726f206160008201527f6464726573730000000000000000000000000000000000000000000000000000602082015250565b6000613bfc602683612fa1565b9150613c0782613ba0565b604082019050919050565b60006020820190508181036000830152613c2b81613bef565b9050919050565b7f45524332303a20617070726f76652066726f6d20746865207a65726f2061646460008201527f7265737300000000000000000000000000000000000000000000000000000000602082015250565b6000613c8e602483612fa1565b9150613c9982613c32565b604082019050919050565b60006020820190508181036000830152613cbd81613c81565b9050919050565b7f45524332303a20617070726f766520746f20746865207a65726f20616464726560008201527f7373000000000000000000000000000000000000000000000000000000000000602082015250565b6000613d20602283612fa1565b9150613d2b82613cc4565b604082019050919050565b60006020820190508181036000830152613d4f81613d13565b9050919050565b7f45524332303a207472616e736665722066726f6d20746865207a65726f20616460008201527f6472657373000000000000000000000000000000000000000000000000000000602082015250565b6000613db2602583612fa1565b9150613dbd82613d56565b604082019050919050565b60006020820190508181036000830152613de181613da5565b9050919050565b7f45524332303a207472616e7366657220746f20746865207a65726f206164647260008201527f6573730000000000000000000000000000000000000000000000000000000000602082015250565b6000613e44602383612fa1565b9150613e4f82613de8565b604082019050919050565b60006020820190508181036000830152613e7381613e37565b9050919050565b7f5472616e7366657220616d6f756e74206d75737420626520677265617465722060008201527f7468616e207a65726f0000000000000000000000000000000000000000000000602082015250565b6000613ed6602983612fa1565b9150613ee182613e7a565b604082019050919050565b60006020820190508181036000830152613f0581613ec9565b9050919050565b7f54726164696e67206973206e6f74206163746976652e00000000000000000000600082015250565b6000613f42601683612fa1565b9150613f4d82613f0c565b602082019050919050565b60006020820190508181036000830152613f7181613f35565b9050919050565b7f427579207472616e7366657220616d6f756e742065786365656473207468652060008201527f6d617854786e53697a652e000000000000000000000000000000000000000000602082015250565b6000613fd4602b83612fa1565b9150613fdf82613f78565b604082019050919050565b6000602082019050818103600083015261400381613fc7565b9050919050565b7f4d61782077616c6c657420657863656564656400000000000000000000000000600082015250565b6000614040601383612fa1565b915061404b8261400a565b602082019050919050565b6000602082019050818103600083015261406f81614033565b9050919050565b7f53656c6c207472616e7366657220616d6f756e7420657863656564732074686560008201527f206d617854786e53697a652e0000000000000000000000000000000000000000602082015250565b60006140d2602c83612fa1565b91506140dd82614076565b604082019050919050565b60006020820190508181036000830152614101816140c5565b9050919050565b7f45524332303a207472616e7366657220616d6f756e742065786365656473206260008201527f616c616e63650000000000000000000000000000000000000000000000000000602082015250565b6000614164602683612fa1565b915061416f82614108565b604082019050919050565b6000602082019050818103600083015261419381614157565b9050919050565b600081905092915050565b50565b60006141b560008361419a565b91506141c0826141a5565b600082019050919050565b60006141d6826141a8565b9150819050919050565b7f5472616e7366657220746f206d61726b6574696e672077616c6c65742066616960008201527f6c65640000000000000000000000000000000000000000000000000000000000602082015250565b600061423c602383612fa1565b9150614247826141e0565b604082019050919050565b6000602082019050818103600083015261426b8161422f565b9050919050565b600061427d826130ab565b9150614288836130ab565b92508282039050818111156142a05761429f61355c565b5b92915050565b7f4e487b7100000000000000000000000000000000000000000000000000000000600052604160045260246000fd5b7f4e487b7100000000000000000000000000000000000000000000000000000000600052603260045260246000fd5b6000815190506143138161307f565b92915050565b60006020828403121561432f5761432e613048565b5b600061433d84828501614304565b91505092915050565b6000819050919050565b600061436b61436661436184614346565b613265565b6130ab565b9050919050565b61437b81614350565b82525050565b600081519050919050565b600082825260208201905092915050565b6000819050602082019050919050565b6143b68161306d565b82525050565b60006143c883836143ad565b60208301905092915050565b6000602082019050919050565b60006143ec82614381565b6143f6818561438c565b93506144018361439d565b8060005b8381101561443257815161441988826143bc565b9750614424836143d4565b925050600181019050614405565b5085935050505092915050565b600060a0820190506144546000830188613157565b6144616020830187614372565b818103604083015261447381866143e1565b905061448260608301856132df565b61448f6080830184613157565b9695505050505050565b7f53776170206661696c6564000000000000000000000000000000000000000000600082015250565b60006144cf600b83612fa1565b91506144da82614499565b602082019050919050565b600060208201905081810360008301526144fe816144c2565b905091905056fea2646970667358221220d85387134f41a8e7867e7bff345a62479799a579f2c0ad221bc7abd98072edc464736f6c63430008180033",
  "linkReferences": {},
  "deployedLinkReferences": {}
}